:020000040800F2
:100000000000022079B7000855B2000857B2000876
:100010007BB200087DB200087FB20008000000003B
:1000200000000000000000000000000081B2000895
:1000300083B200080000000085B200082DB200085D
:10004000C9B70008C9B70008C9B70008C9B7000890
:10005000C9B70008C9B70008C9B70008C9B7000880
:10006000C9B70008C9B70008C9B70008C9B7000870
:10007000C9B70008C9B70008C9B70008C9B7000860
:10008000C9B70008C9B70008C9B70008C9B7000850
:10009000C9B70008C9B70008C9B70008C9B7000840
:1000A000C9B70008C9B70008C9B70008C9B7000830
:1000B000C9B70008C9B70008C9B70008C9B7000820
:1000C000C9B70008C9B70008C9B70008C9B7000810
:1000D000C9B70008C9B70008C9B70008C9B7000800
:1000E000C9B70008C9B70008C9B70008C9B70008F0
:1000F000C9B70008C9B70008C9B7000849B2000865
:10010000C9B70008C9B70008C9B70008C9B70008CF
:10011000C9B70008C9B70008C9B70008C9B70008BF
:10012000C9B70008C9B70008C9B70008C9B70008AF
:10013000C9B70008C9B70008C9B70008C9B700089F
:10014000C9B70008C9B70008C9B700083DB2000820
:10015000C9B70008C9B70008C9B70008C9B700087F
:10016000C9B70008C9B70008C9B70008C9B700086F
:10017000C9B70008C9B70008C9B7000800000000E7
:08018000C9B70008C9B7000867
:1001900010B5054C237833B9044B13B10448AFF3C1
:1001A00000800123237010BDEC000020000000003F
:1001B00040C7000808B5034B1BB103490348AFF320
:1001C000008008BD00000000F000002040C70008CB
:1001D0008168091A40683E394910C0F11000C0EB2F
:1001E000011070470A0910B500EB42023E328260EE
:1001F00032F8023B01F00F015BBA1B048B40036035
:10020000826032F8024B64BA8C4023431039036099
:10021000C0E9011210BD010307D5C0F34141C1EB94
:100220000111FF4A11440F3906E0FD496FEA5042BF
:100230002D31920700D10F3180B201EB10300078E0
:10024000C0007047C0F34141012902D0032905D005
:1002500007E0000305D44FF4107070474FF4C070EE
:1002600070474FF49060704730B50346084613F46A
:10027000704F6FEA53441ED01846FFF7E3FF45095D
:100280001846FFF7C8FF4FEAD0004543E448C3F3E0
:100290008121583050F8210068434FEA9020D9025C
:1002A00005D54FEA5000190301D54FEA5000A107C8
:1002B00001D120F00300990502D5A10701D0401C0F
:1002C00030BD001D30BD01461E200A0300D40F20A2
:1002D000C1F38111032900D14010801C70470346EF
:1002E00000B5C0F34140012801D9042004E01846BC
:1002F000FFF7E9FF00F10400D90300D4801C00BD22
:100300002DE9F041044600690D0023D0E1694F1B3F
:10031000FFF7E5FFE16906460A18A069831A02D0D3
:10032000204601F0A7F8A069801BA061E069801B4E
:10033000E061D4E90401FFF797FFE1690844E06157
:10034000206BA8420DD3F9002046FFF74BFF012098
:10035000BDE8F0816169FFF787FFE1690844E0616A
:10036000F5E707EB0501081A00D50020C10020467B
:10037000FFF738FF0020EBE7416A33E710B504468A
:10038000A84B002084EA01021A420CD10122134634
:1003900014F4704F00D0002311F4704F00D00022ED
:1003A000934200D1012010BDA04A10B59E491160B2
:1003B000002140F6FF73B3EB105F04D047F6F173F2
:1003C000B3EB504F0CD183B20F24B4EB133F07D0E3
:1003D0006FEA90239B0703D0400C800700D00121D7
:1003E000106801EAE07010BD2DE9F041884604462E
:1003F000FFF7EEFEA1690646C0EBC107E16941F2D5
:100400001022404402EBC101884233D36FF0020056
:100410009EE7E1693046B6EBC10F00D3C800C508BE
:10042000A069A84200D805468DB1431B04D02A46D6
:100430000021204601F01EF8E069401BE061A06940
:10044000401BA061606A694200EBC10060626842C3
:1004500006EBC006A06904F13E03A0F24221184455
:10046000D4E90D3249429847A1690144C000A16115
:1004700007440AD04745CCDB31462046FFF7B2FEA1
:1004800006EB08006062002062E731462046FFF775
:10049000A9FE6FF001005BE702688A4002604268D3
:1004A0001144416070472DE9F04704465F4800253C
:1004B0004FF00108C0F808800168491CFAD1A06A11
:1004C00040F2E17790B14FF498712046FFF78CFF2E
:1004D00000287ED16169E56AE069B94201D1216BEA
:1004E0000844C1002046FFF77DFE3BE060684042C3
:1004F00000F007012046FFF7CFFF2046FFF768FE18
:10050000E169B0EBC10F01D9C108E1616169B9428C
:100510000FD0E169C0EBC10640F6F870864206DDF7
:100520000646C0EBC1012046FFF75CFE02E0002E4C
:1005300000DA0026F01706EB5070C010C4F82080D7
:10054000206306F598712046FFF74EFF00284AD138
:100550006069B84214D12046FFF73AFEC008E1694D
:10056000E0610D1A1021204600F026FF06461021FA
:10057000204600F021FF40EA06464FF0000934E033
:10058000E069AEE76DB1206B6D1E401C2063B0F5D5
:10059000007F02DB40F2FF1011E0E069401EE061E5
:1005A0000EE06069B84203D1216BE0690844E06164
:1005B000C4F814902169484609B120622061206383
:1005C0000821204600F0F8FE40EA0626E069401CBB
:1005D00000E008E0E0614FF488712046FFF704FF77
:1005E00018B1C4E90A85BDE8F0873046FFF7DCFEA4
:1005F0000028C7D0216919B33046FFF7BFFE002895
:10060000C0D06069B84206D1A0EB05006061216BE3
:10061000E0690844E0612661F0030DD4102107E091
:10062000A0E10008000CFEFF0000F0FF00300240D7
:10063000204600F0C1FEA0870020C4F82890D2E731
:1006400016F4704FDDD16761DBE700B50246FFF7B6
:10065000BFFDD169C0EBC10000BDC169491CC161CA
:100660000021016270470146F948C1F3812250F828
:1006700022000A0304D44FEA5000C90200D4400803
:1006800070472DE9F04F8A46814600F16601F04E31
:10069000032500201836EF4C08E0226836F8107069
:1006A000524387EA2247BBB22260401C5045F4DD2A
:1006B000180406EBD03C0122A2602068401CFBD14C
:1006C0005B43236083464FF4907EA0460020724631
:1006D00001F801B93CF8024BD8F8003063409CB2F5
:1006E0002312E6B2704380302C46001203B9304624
:1006F000C7B2121A01F80179641EFAD15B1E002BF1
:10070000F0DC002AE6D16D10E0D106224846BAF1AD
:10071000050F00DD082200F12801521E11F8013BEF
:1007200000F8013BF9D109F148010A7800F8012BE2
:1007300011F8012B002AF8D1BDE8F08F2DE9FF4F09
:1007400085B01D460698DDE9123100690390DFF897
:1007500008A3D07A144628B1A07A0AF11C0A08B17D
:100760000AF11C0A0398000310D5BB49A088103970
:10077000085C4FEA90018DF808108DF8091000F020
:1007800003008DF80A008DF80B0035E0039AA3886A
:100790000020D20601D501B101204FF0000918B1A7
:1007A0004FF00C094FEA5303A94F0DF1080E533FC8
:1007B000A9494FF001085E3101EB090B18464FF0D3
:1007C0000301A34E1BF801205A3E08FB02F8B65C59
:1007D00017F802C0464346FA0CF606FB12000EF864
:1007E00001003046491EECD509F10409B3EB0803BA
:1007F000DED5CA446FF00F03069ACDE900235346B5
:1008000002AA2846059900F013FC207D02238107E7
:1008100000D40123E17A19B3608A00B3A07AC3F14E
:10082000030205EB8000668A0768C6F3821606FAA3
:1008300002F63E440660668A4768C6F3C20606FAB8
:1008400002F63E444660668A876806F0070606FAA6
:1008500002F63E44866000F10C00C91EE3D10DE0B3
:1008600040070BD57C4A0020543205EB8001175C11
:10087000CE6A401C3E44CE620A28F6D3A179039882
:100880006E39C0F34210032800D1891E002004E015
:100890002A689A408A1A04C5401CA27AE67A324431
:1008A0008242F5DC09B047E72DE9F74F0025012624
:1008B000C2F3811B82B082460446BBF1030F00D015
:1008C000022610030DD576000921039800F074FD6F
:1008D0000090F11D039800F06FFD054640F2834043
:1008E00008E006F10801039800F066FDF040009072
:1008F00040F6621080464FF00009BBF1030F00D1B3
:100900002D010C21039800F057FD20800921039848
:1009100000F052FDB0F5907F2CDC60800821039838
:1009200000F04AFDA071C8F30321039800F044FDD4
:10093000A080AAEB040707F1800060721620A07265
:1009400084F80B900121039800F036FDA0B3032139
:10095000039800F031FD00F0010121724010E071B8
:100960004FF00702E2734FF03F02227402D00228D8
:1009700004D00EE04FF0FF3005B0DDE640F60F701A
:10098000054089B158376772C8F30310A0721E2062
:10099000E0720A21039800F00FFD47010921039836
:1009A00000F00AFD60821DE00820E073973767724F
:1009B00084F80A902720EBE7FFE784F8079084F893
:1009C00008900F21039800F0F7FC074604210398D4
:1009D00000F0F2FCE0730321039800F0EDFC2074BA
:1009E0003F206074B80A2073C7F34410607307F0A7
:1009F0001F00A073A0880427B0F5FA7F00D200275B
:100A000008F00F01039800F0D7FC38442075C5F3B7
:100A1000033060752D011634761E7FF46EAF00989A
:100A2000AAE72DE9FF5F00F5EF57044650F8D81B01
:100A3000BB460290B1F1FF3F39DA4FF48071FFF706
:100A4000D3FC58B16FF0010004B0BDE8F09F000086
:100A5000ECE100080030024026E40008D4F8E80089
:100A6000C0F3C041C0F30052114401EB4101C0F397
:100A700081200D1894F9D700A84206D0294604F128
:100A80007000FFF7FEFD84F8D750D4F8E82004F199
:100A900018000299FFF708FF011E02DA6FF002004A
:100AA000D2E70298FFF72CFCF8B100202060D4F8C0
:100AB000E8100120C1F38111032900D002208046F3
:100AC0002068DFF820964FEA600A00F001050AFB73
:100AD000085000EB400101EBC00004EB400605EBC1
:100AE000C500183607EB002742E04FF0FF30ABE7B8
:100AF000B07AF17A0844A7EB800000F6FC0003907E
:100B000031880298FFF770FC00289DD1C5EBC50025
:100B100000EB4510727D204442F6E4710844CDE9B3
:100B20000025DDE902133246FFF708FE0121C9F86E
:100B30000810D9F80000401CF9D1DDE90213324653
:100B4000384600F0AFFEC01B04EB45018010088260
:100B50000298FFF711FCC8F51071C9F80010216860
:100B6000C8F1030008446D1C163607F510672060B5
:100B70004545BDDBD9F80000D4F8E83000F00306A5
:100B80000AFB08F000EB400101EBC00004EB40055C
:100B90001835C3F38110012817D113F0300F14D08A
:100BA000218A608A814200D801466182218261B136
:100BB000D80607D543F20B0021182A46584601F003
:100BC000C5FC02E0584601F073FC04F58050CDE905
:100BD00001604FF0000967E0287A002628B194F8F8
:100BE000D7000226022800D10426E87AC8B104EB17
:100BF00049087042B8F8101000EBC00001EB400249
:100C0000687AA97A06EBC60708444119A6F1010AD9
:100C10000BEBC70001F0F2FB00EB4701A8F8101046
:100C200001E04FF01F0A04EB4900018A828A9142D9
:100C300000D90A468182113240F6396042434FEAB8
:100C40001248D04500DAC2460298D0F8947D4FB1E0
:100C5000E8790121D4F81031022800D000214A4659
:100C60005846B847BAF1000003DD0146584600F087
:100C700025FD4046B8F1200F01DA401C8046B04502
:100C800000DC701C009009EBC90004EBC011EB798B
:100C900001F556713246ABF1480001F07FFB09F1D6
:100CA000010916350BF5106B0199894594DBD4F8D1
:100CB000E8000003206802D5042802D004E00228DE
:100CC00002D14FF0FF3020604FF41070BCE62DE9E8
:100CD000F84F83460C46006900F0EDF90546002107
:100CE0005846FFF70DFB4FF0000AFF4E94F80090B6
:100CF000E71CD046A8F10108B8F1000F06DC95F812
:100D0000028095F801A015F9030B06445146584698
:100D100000F052FB305C07F8010BA2784A4504DA78
:100D20005146584600F048FB305C617801B900201C
:100D300007F8010BB9F10109DCD1207804F1430572
:100D40004700E61CA9464FF0020816F8011B0620D2
:100D500051B1DBF8101040466FEA5141890703D0CA
:100D60000221584600F028FB05F8010B7F1EECD14C
:100D700004F18403009320784A464300E11C58465E
:100D800000F0DBF9A178E01C41B1627800EB420091
:100D9000401C002200F8022B491EFBD10020BDE8B8
:100DA000F88F2DE9F05F044600F1D80800F556777A
:100DB00041F698502618D8F8100001256FEA5040E7
:100DC000B146800700D003252068002811DA4FF4CF
:100DD0002071012D01D040F27C514046FFF704FB09
:100DE000002841D139464046FFF771FF00283BD12A
:100DF0002060012D01D106EB80066FF0020B4FF44D
:100E0000905A4046FFF721FC00282CDB5146504504
:100E100000DC01464046FFF7E7FA002824D12B46C4
:100E20003A464146304600F0F9F906462068001D72
:100E300020600C2801DA012DE3D0216807F184003D
:100E4000891000EBC10108394A46384600F0A9F97B
:100E500020680C2802D14FF0FF3020604046FFF799
:100E6000F4FB002801DA5846EFE54FF4C070ECE5DA
:100E7000002204C0491EFCD1704770B50546806849
:100E80000C461646904200D80646801BA860B6B1B4
:100E900041F69850334628446A6800F041FB686880
:100EA00030446860D5F8E800C0F38110032806D10B
:100EB000304602E021886180241D401EFAD230466F
:100EC00070BD70B50D460446164640F60E41FFF75C
:100ED000CFFF8448012181600268521CFBD104F6D7
:100EE000944020F03F00E06004F58B70C4F8E0000F
:100EF0001020C4F8DC00501E2060C4E9435384F87D
:100F0000D70004F58054C4F8946D70BD2DE9FF4FEF
:100F10000446D0F8F880806881B00F4691460026DC
:100F200028B12046FFF7A9FF064607EB8007B14529
:100F300006D80498002876D0D4F8E80000286DD1AF
:100F400004F1D800009041F698504FF0010B04EBEB
:100F5000000A2068401C06D10098FFF7A4FAE8BBFD
:100F60002068401E20605F49C1F808B00868401C36
:100F7000FAD1D4F8E800C0F34140086001282046C7
:100F800008D0FFF70EFF0546D4F8F80000EA08087D
:100F900018B113E0FFF745FDF5E7D4F8E800C0F31A
:100FA0004140012805D14FF4107104F55670FFF748
:100FB0005FFF40F292415046FFF75AFF002D05DADD
:100FC000681C0CD0A81C27D0E81C0CD0D4F8E80072
:100FD0005B46C0F3811003280AD108E01CE04FF003
:100FE000FF30206016E00098FFF737FBF7E700239B
:100FF0006A1104F10C01504602F002FA0020C4E923
:101000000105A9EB060239462046FFF736FF0644E4
:1010100007EB8007B1459CD8049820B14246204692
:10102000049900F079F93046A6E443F2380070479D
:101030002DE9FF5F04460F9F0D4693464FF00009D0
:10104000039810F8016B03901BF801AB0EB338073F
:1010500005D515F9010B761E01C4FAD119E05FEA36
:101060000A0022D04FF0FF38002F04DA012101FAE4
:101070000AF1A1F1010851460E9800F09DF94FF0D8
:10108000FF31404500D0014605F8011B01C4761E22
:10109000F1D109F101097F00B9F1040FD0DB002083
:1010A00020606060A060BDE8FF9F01C405F8010BEF
:1010B000761EFAD1EDE770B50B4B0D4604465C3356
:1010C000FFF7A9F8C4F38111C4F38126032901D0E5
:1010D0004FEA50006FEA5442920707D0220308D427
:1010E000123315E0003002409CE300081B3320223D
:1010F0000FE000B9C0201B22382805D20C330C2287
:10110000022E06D0082204E0602802D3012E00D06F
:101110001E222020CE0707D00020012904D1C4F3CD
:101120000110042101EB8000904200DB10462A7080
:101130006870101AA870184670BD2DE9FF5F0F4641
:101140000E9D90469A4618F8011B1320C84000F0E7
:101150000306042417F8010B361D00B900260021F0
:10116000DFF84CB20A4600EB400926420FD00621B8
:10117000009800F021F92B214143C9114A1D484430
:10118000A1EB810101440BEB810050F8181C2846AB
:101190000835C0E900126410E7D1BAF1010AD2D1D2
:1011A00081E72DE9F74F4FF0020E0098009B90F871
:1011B00000805B7802F51060D3B1D1E900AB51F843
:1011C000189FD1F804C018310C2440C8156809FBD9
:1011D00006F747FA0CF70AFB05F646FA0BF6C2F8D3
:1011E000007940C2641EF0D1183218305B1EE3E76C
:1011F0000098BEF1010E83781046DDD100214046F3
:1012000008F10108202807DA0C20C2F8001902C2F0
:10121000401EFAD11832F2E7BDE8FE8F2DE9FF4FEC
:1012200082B00420009003980399039A40680968EB
:1012300094684FF41079049ADDF808C0DDF8108046
:10124000127808F103084FEA420E059A0CEB82026D
:10125000029218F8013B62460CEB890CFBB1059D2C
:10126000112B1DDAA3F101074FF0010606FA07F66C
:10127000A6F1010BC3F1200A21FA0AF601FA03F1E3
:10128000C01807D434F8027B7FBA07FA00F7394355
:10129000A0F11000A6EB0B0640C26D1EECD128E0B9
:1012A000A3F111034FF00107424E07FA03FB07EBCE
:1012B0004B0A36F813300193AAEBEA0303F1020359
:1012C000C3F1200721FA07F601FA03F1C01805D48B
:1012D00034F8023B5BBA834019431038019B7343D7
:1012E0005B0B03FB1A67A7EB0B0780C21E466D1E44
:1012F000F4D1C9F11209BEF1010EAAD1009A521E11
:10130000009298D1039A1160039948600398846011
:10131000029806B0BDE8F08F70B5D0F8E8600546D9
:1013200013460C46C6B33046FEF775FFA060012099
:10133000C6F38111032900D00220E060C6F34140CA
:10134000C0F1040020603046FFF78DF92361606032
:10135000288A6061688AA0613046D5F8EC10FEF7F3
:1013600083FFD5F8F0100844D5F8F410C0004942C6
:1013700000EBC100E0613046FEF764FF02462062E8
:10138000286800280DDB2168032906D06021AB689E
:101390001A4401FB102005E006E04FF410714010E4
:1013A000F5E7A868606270BD0020086070BD0000AD
:1013B000C4E200088CE1000890E80C005B1808D536
:1013C000C1F1200C02FA01F180E80A0022FA0CF0C7
:1013D0007047D0F808C04DF8044D3CF8024BC0F8F7
:1013E00008C064BAC1F1200C02FA01F104FA03F456
:1013F00041EA0401A3F1100380E80A0022FA0CF08C
:101400005DF8044B704710B5203A0CD321BFB1E80A
:101410001850A0E81850B1E81850A0E8185028BF9C
:10142000B2F12002F2D25FEA027C24BFB1E8185088
:10143000A0E8185044BF18C918C0BDE810405FEAC2
:10144000827C24BF51F8043B40F8043B08BF70473E
:10145000D20748BF11F8012B24BF11F8013B11F846
:1014600001CB48BF00F8012B24BF00F8013B00F876
:1014700001CB704794461A4600EB0C03084403F175
:101480003E0100F13E00032AE2D910F0030C14D013
:1014900011F8013BBCF1020F624498BF11F801CB77
:1014A00000F8013B38BF11F8013BA2F1040298BFDC
:1014B00000F801CB38BF00F8013B11F00303A2D0C4
:1014C000121FC5D3A1EB0301D1F800C0022B0DD030
:1014D00019D84FEA1C2351F804CF121F43EA0C63BA
:1014E00040F8043BF5D201F10101B1E74FEA1C439A
:1014F00051F804CF121F43EA0C4340F8043BF5D2E5
:1015000001F10201A4E74FEA1C6351F804CF121F56
:1015100043EA0C2340F8043BF5D201F1030197E7BD
:1015200010B5B3F5107F00F095804FEA621C00EB18
:101530008C0002F01F02C2F1200C02EBC20200EB91
:10154000C200B3EB0C0348BF9C4440F6FC025FEAC8
:101550005C0C28BF50F8484B0FF2D00E28BF41F862
:10156000044B0CEB4C0CAEEB8C0CE74650F8484BA4
:1015700050F848CBA1E8101050F8484B50F848CB31
:10158000A1E8101050F8484B50F848CBA1E81010D3
:1015900050F8484B50F848CBA1E8101050F8484B91
:1015A00050F848CBA1E8101050F8484B50F848CB01
:1015B000A1E8101050F8484B50F848CBA1E81010A3
:1015C00050F8484B50F848CBA1E8101050F8484B61
:1015D00050F848CBA1E8101050F8484B50F848CBD1
:1015E000A1E8101050F8484B50F848CBA1E8101073
:1015F00050F8484B50F848CBA1E8101050F8484B31
:1016000050F848CBA1E8101050F8484B50F848CBA0
:10161000A1E8101050F8484B50F848CBA1E8101042
:1016200050F8484B50F848CBA1E81010A0EB02004E
:10163000203B9BDA13F1200CD8BF10BD5FEA5C0C95
:1016400024BF50F8484B41F8044B0CEB4C0CAEEB6C
:101650008C0CE7462DE9E00F4FF0200EB0E8FC07B8
:101660000A60C1F88030C1F80041C1F88051C1F86A
:101670000062C1F88072C1F80083C1F88093C1F89C
:1016800000A4B0E8FC07C1F88024C1F80035C1F817
:101690008045C1F80056C1F88066C1F80077C1F8EE
:1016A0008087C1F80098C1F880A8BEF1010E01F151
:1016B0000401D3D1BDE8E00F10BD00002DE9F04FCB
:1016C000DFF8B4E000F148009EE8FC5050E902ABBE
:1016D00090E800033BFB02883AFB039938FB12BBFE
:1016E00039FB13AAC3443BFB02883AFB039940E948
:1016F00002ABA0E8000350E906AB90E800033BFB17
:1017000004883AFB059938FB14BB39FB15AA3BFB4F
:1017100004883AFB059940E906ABA0E8000350E9CC
:101720000AAB90E800033BFB06883AFB079938FBBD
:1017300016BB39FB17AA3BFB06883AFB079940E921
:101740000AABA0E8000350E90EAB90E800033BFBB6
:101750000C883AFB0E9938FB1CBB39FB1EAA3BFBDD
:101760000C883AFB0E9940E90EABE0E80C89491E63
:10177000ACD1BDE8F08F0000A0E4000825FA0BF121
:101780000844DFF86015832838BF51F8200019D2CB
:10179000A2FB0010A9F1050120FA01F0CBF1210113
:1017A0008D4028BF404276180EF1120E48BFF74612
:1017B00037F8021B49BA01FA06F145EA0105A6F11C
:1017C0001006F74630B4B0F5806FB8BFC00000F027
:1017D0003F054FEA901001EB800113C9C5F14005A8
:1017E0002044A0EB4404A0EB410005FB00F004EB17
:1017F000A01000FB05F501EBE514A2FB0450A9F1D4
:101800000D01B8BF091D20FA01F030BCCBF1210158
:101810008D4028BF404276180EF1120E48BF704727
:1018200037F8021B49BA01FA06F145EA0105A6F1AB
:10183000100670474FF000004FF00001A8E80300C9
:10184000B4F18074FADCDFE000000080000038981A
:10185000000005B5000045D7DDF820A0DDF838E030
:101860000AF1010008900EEB0A03D87B1B7BDFF81E
:1018700078E401F101014FEAD56A3EF813300144E2
:10188000029113F01F0B0CBF0FF21A110FF2682117
:101890005B090EBFAFF264010EEB430333F81AA0ED
:1018A0000A91C1E02DE9FF4F8CB080464FF0000057
:1018B00008905188537A0691134405930D9802932A
:1018C00090E8E000A0E005FA01F5CEF1200025FA4D
:1018D00000F000EB5A1A761833F81AA05FBF37F8F9
:1018E000020B40BAB040054358BF103E14EA5A01FB
:1018F0005CD205FA0EF5C1F1200025FA00F000EBEC
:101900005A1A33F81AA0764414EA5A0E1CD205FA71
:1019100001F5CEF1200025FA00F000EB5A1A33F859
:101920001AA00E4414EA5A0140D24FEA4515C1F1FB
:10193000200025FA00F000EB6A1033F810A006F141
:10194000050614EA5A0EBED316EB0E0605FA0EF57E
:101950005FBF37F8020B40BAB040054358BF103E96
:1019600014EA9A101FBF5CF82000761C20FA09F0D8
:101970005FEA450528BFD0F1000014EADA211FBF55
:101980005CF82110761C21FA09F15FEA450528BFB1
:10199000D1F10001A8E80300B4F180744FEAD56AE0
:1019A00033F81AA030DD14EA5A01BED3761805FACE
:1019B00001F55FBF37F8020B40BAB040054358BF8E
:1019C000103E14EA9A101FBF5CF82000761C20FA23
:1019D00009F05FEA450528BFD0F1000014EADA21DA
:1019E0001FBF5CF82110761C21FA09F15FEA45055A
:1019F00028BFD1F10001A8E803004FEAD56AB4F18D
:101A0000807433F81AA0CEDCDDF818900599DDF863
:101A10003CC0D9F1000480F2AB8011F8014B029870
:101A200005918142BFF418AFB9EB0409CDF81890C5
:101A3000B8BF4C44A4F101044FEA046404F10F045C
:101A40005CF804EBCDF83CC04FF01901A1EBAE09F6
:101A5000A6490EF00300DDF828E001EB801CF746F4
:101A60004FEA451525FA01F04FEA104000EB5A10F5
:101A700033F810A0761DC1F1100E14EA5A0142D2BB
:101A800005FA0EF525FA01F04FEA104000EB5A1066
:101A900033F810A016EB0E06C1F1100E5FBF37F839
:101AA000020B40BAB040054358BF103E14EA5A0139
:101AB00029D205FA0EF525FA01F04FEA104000EBA5
:101AC0005A1033F810A016EB0E06C1F1100E14EAEE
:101AD0005A0118D205FA0EF525FA01F04FEA104026
:101AE00000EB5A1033F810A016EB0E06C1F1100EE1
:101AF00014EA5A0107D206E0AFF2B42151F82020CF
:101B000014EA5A01ACD3761805FA01F55FBF37F82D
:101B1000020B40BAB040054358BF103E14EA9A1079
:101B20000BD028BFFFF72AFE5CF8200006F1010663
:101B300020FA09F06D0028BF404248F8040B14EA6F
:101B4000DA200BD028BFFFF719FE5CF8200006F161
:101B5000010620FA09F06D0028BF404248F8040B46
:101B60004FEAD56AB4F1807433F81AA0C8DC4BE7A9
:101B70001CBF0FF20E0E5CF8040C40F0958000F0D4
:101B80008DF804F101040D9ADDF83890D2F824B0F4
:101B900002F13E02A7EB0202ABEBC20B0BF1100A03
:101BA00056455CDC4FEA0A4A99F814900AF1010A9A
:101BB00019F0010F18BF0FF2360318D108BF0FF24A
:101BC00002036D0004D34FF00009761C23D416E005
:101BD0000FF2F00E4FEAD5691EF809906D084FEA32
:101BE000191E05FA0EF516EB0E0614D407E06FEA7F
:101BF000157909F00F094FEA0515361D0BD437F892
:101C000002EB9EFA9EFEAAF5801A0EFA06FE45EA3F
:101C10000E05A6F11006B6EB2A4F20DC641ED8BFD5
:101C200000F03CF81AEAD90218BF00F02AF81AEAC4
:101C3000990B18BF00F02BF8A8E80408641ED8BF61
:101C400000F02CF81AEA590218BF00F01AF81AEA44
:101C5000090B18BF00F01BF8A8E804089F460C9871
:101C600010B000F51060404598BFBDE8F08F4FF010
:101C700000014FF0000220E906004045FBD1BDE81D
:101C8000F08F6D002CBF42420246761C70476D00FB
:101C90002CBFC0F1000B8346761C704711F8014B36
:101CA0005CF8040B002CDAD04FEAA00B104A00F0CD
:101CB00003004FEA80101058CBF1190B20FA0BF0FB
:101CC000F74600006B6F6D6E676559595656535352
:101CD0005A5A5C5C4242424241414141444444447C
:101CE0004848484884E40008A0D0000890E600086E
:101CF00094E6000890C805694669D0E90A893D4420
:101D0000C5EB4707A8EB060808EB460635FB025370
:101D1000A6EB040504EB6604A3EB0404A4EB430662
:101D200038FB0283C9EB070809EB6709A9EB030736
:101D3000994434FB0C9935FB0B8836FB0A7739FB49
:101D40001C4438FB1B5537FB1A66A4EB090434FB13
:101D50000C9935FB0B8836FB0A770B680C604C68D6
:101D60004D608D688E6033FB0A9934FB0B8835FB20
:101D70000C7739FB1A3338FB1B4437FB1C5533FBFC
:101D80000A9934FB0B88A5EB070535FB0C777047E8
:101D90000FF29C0393E8101C04EB0242A0F1300008
:101DA000B1E8F00300E9F00300F13000FFF7A2FF13
:101DB000A0F1380E8EE8B803FFF79CFFA0F1280EC3
:101DC0008EE8B803FFF796FF01E9B80301F10C01B3
:101DD000B1E8F003C5F10005C7F10007C9F100093A
:101DE00000E9F00300F13000FFF784FFA0F1380EA6
:101DF000C4F10004C9F10009C7F100078EE8B80377
:101E0000FFF778FFA0F1280EC4F10004C9F1000922
:101E1000C7F100078EE8B803FFF76CFF01E9B803CC
:101E200001F10C01B2F50032BAD5A0F11800C3E2FD
:101E3000B4DDFFFFC71096DEEC32089EE65628643C
:101E4000DFF84C454DF804ED04EB024E4EEA837E7C
:101E5000DFF8A02500F1040078C82344A3EB440B6D
:101E6000A6EB050AAAEB460C40F8103C40F80CCC57
:101E7000B0E838102344A3EB4409ACEB0508A8EB09
:101E80004C0C40F8183C40F814CC88C8B0E840101E
:101E90003B44A3EB4707ACEB0606A6EB4C0C40F823
:101EA000203C40F81CCC28C8B0E810102B44A3EB11
:101EB0004505ACEB0404A4EB4C0C40F8283C40F87E
:101EC00024CC50F84439A4EB080CACEB0A0CA04429
:101ED000A244A3EB090403EB6903A5EB0709A9EBF3
:101EE0000B092F44AB4404EB6905A4EB09044DF83E
:101EF000104D3CFB0ECC36FB0E66DFF89894ACEB35
:101F00000505A5EB4C0C37FB19743BFB0944ABEB07
:101F1000070B3BFB19BB37FB09F7DFF87C94ABEBF6
:101F2000070BA8EB0A0738FB09883AFB19AA37FB0D
:101F300009AA3344BA4437FB1977A3EB4606A8EB4A
:101F4000070904EB0B07A9EB0A085444A4EB4A0A5F
:101F50001C44B244CB44ABEB4909B34499444744D5
:101F6000A7EB4808A7EB0607A8EB03082DE98001BB
:101F70004DF8049D4DF804BD20B44DF804CD2DE975
:101F8000100490E8F80FC3F10003A4EB080CACEBCD
:101F90000A0CA044A244A3EB090403EB6903A5EBDC
:101FA0000709A9EB0B092F44AB4404EB6905A4EB2B
:101FB00009040B943CFB0ECC36FB0E66DFF8D49381
:101FC0006544A5EB4C0C37FB19743BFB0944ABEBA8
:101FD000070B3BFB19BB37FB09F7DFF8BC93ABEBF7
:101FE000070BA8EB0A0738FB09883AFB19AA37FB4D
:101FF00009AA3344BA4437FB1977A3EB4606A8EB8A
:10200000070904EB0B07A9EB0A085444A4EB4A0A9E
:102010001C44B244CB44ABEB4909B3449944474414
:10202000A7EB4808A6EB0707A3EB08080997CDF82C
:102030002880F14ABEF5010E00F1EA805FEA4E28E1
:1020400048BCB2E8800100B534FB07333AFB0866B0
:1020500033FB174436FB18AAA4EB030434FB073305
:102060003AFB0866D1F800E00C60744601F12001EB
:10207000D1F800E0C1F800A0F246A1F11C0134FB48
:1020800008333AFB076633FB184436FB17AA34FBC8
:102090000833AAEB060A3AFB07663CBF5B4276426E
:1020A00040F828AC40F8246C40F8484C40F8043C18
:1020B0005DF804EB48BCB2E8800135FB07333CFB1C
:1020C000086633FB175536FB18CCA5EB030535FB2B
:1020D00007333CFB0866D1F800A041F8185B0D6897
:1020E00041F814C93AFB083335FB076633FB18AADD
:1020F00036FB17553AFB0833A5EB060535FB07669B
:102100003CBFCAF1000A6D4240F82C5C40F8206CDC
:1021100040F844AC40F8083C48BCB2E880013BFBC6
:10212000073339FB086633FB17BB36FB1899ABEB5B
:10213000030B3BFB073339FB0866D1F800A041F8DD
:1021400010BBD1F800B041F80C993AFB08333BFBC7
:10215000076633FB18AA36FB17BB3AFB0833ABEB19
:10216000060B3BFB07663CBF5B42764240F830BC47
:1021700040F81C6C40F840AC40F80C3CB2E8180148
:10218000BDE8C01E3AFB04663BFB08773CFB0399A5
:1021900036FB14AA37FB18BB39FB13CC3AFB046699
:1021A0003BFB08773CFB03990D6841F808ABD1F87D
:1021B00000A041F804B9D1F800B041F814CB35FBC8
:1021C00008663AFB04773BFB039936FB185537FB4F
:1021D00014AA39FB13BB35FB08663AFB04773BFBBB
:1021E00003993EBF6D42CAF1000AC9F1000940F8E7
:1021F00034AC40F8187C40F83C5C40F8106C40F877
:1022000038BC40F8149C00F14C003FF525AE00BDF1
:102210005FEA4E28A0F14800B1E8C8013CBF764211
:10222000C8F10008A0E8C801D1F8048051F810797D
:1022300038BFC8F10008C0F8048040F8387B48BCBB
:10224000B2E8800134FB07333AFB086633FB1744DE
:1022500036FB18AAA4EB030434FB07333AFB0866E9
:10226000B2E8800141F8204B0C68C1F800A0A246FA
:1022700038BF5B423AFB0766A1F11C0136FB17AA87
:1022800040F8043CAAEB060A3AFB076640F828AC83
:1022900038BF764240F8246C48BC35FB07333CFB22
:1022A000086633FB175536FB18CCA5EB030535FB49
:1022B00007333CFB0866976841F8185B0D68C1F866
:1022C00000C0AC463CFB0766A1F1140136FB17CCFD
:1022D00040F8083C3CFB076638BFCCF1000C40F8E6
:1022E0002CCC40F8206C48BCB2E880013BFB0733A3
:1022F00039FB086633FB17BB36FB1899ABEB030BB6
:102300003BFB073339FB086652F80C7C41F810BBE5
:10231000D1F800B0C1F80090D94638BF5B4239FB14
:102320000766A1F10C0136FB179940F80C3C39FB0C
:10233000076640F8309C38BF764240F81C6CB2E823
:102340001801BDE8C01E3AFB04663BFB08773CFB66
:10235000039936FB14AA37FB18BB39FB13CC3AFBA5
:1023600004663BFB08773CFB0399A1E8001441F8A5
:1023700010BB38BFC9F1000940F8187C40F8149C24
:1023800040F8106C00F14C003FF566AD00BD000058
:10239000B4DD3F40742C1BC48EA41CFC00F148002B
:1023A000002A17D1009A2DE9F04F022B3FF4F0AC30
:1023B000FFF746FDA0F14C004FF000014FF0000286
:1023C0004FF000030EC00EC00EC00EC00EC00EC0F7
:1023D000BDE8F08F2DE9FC4F4FF00003FFF730FD13
:1023E0000CBCDDF824C0D2EB0C0288BF001FDCD887
:1023F000E0E70000B4E7000890E700082DE9F04F9F
:1024000000EB820B5845034647D211F8035BDFF817
:1024100098C0DFF898E04FEA45053CF805C005EBA9
:102420004505A5F102065FEA0C4C30D01EF801AF5D
:102430005FEA4C0CFAD3524603EB820797E800039D
:1024400002EB4202B2EB460244BF12EB060212EB71
:10245000060203EB8207524518BF97E8300087E871
:10246000000311D002EB4202B2EB460244BF12EB72
:10247000060212EB060203EB8207524518BF97E8EB
:10248000000387E83000DBD1BCF1000FCED103EBB5
:10249000860303F108035B45B7D3A3EB00004FEAC3
:1024A000A000BDE8F08F0000C0E70008B3E7000817
:1024B0002DE9F00900F5106201F1020189100ED238
:1024C00090E8180092E80018491E5B44A3EB4B0B00
:1024D0006444A4EB4C0C18C0A2E8001814DD90E88A
:1024E000780092E88019491E3B44A3EB4707444417
:1024F000A4EB48085D44A5EB4B0B6644A6EB4C0CE3
:1025000078C0A2E88019EADCBDE8F00970474FEA1C
:10251000C3334FEAC232DBF800C0761E4FEA8C0CA0
:102520008CFB0301CBF800198CFB0201DBF804C023
:102530004BF8041B4FEA8C0C8CFB0301CBF8001901
:102540008CFB02014BF8041BE5DCBBE02DE9F04FEE
:102550009A46937A92F80BC087B00DF1100803EBFE
:102560000C07537A00F5106E4FF0020503EB020CD6
:102570006FF0000366464FF0000404930593069342
:1025800019E016F8019B73460EEBC90ED3F80090C4
:10259000B9F1000F06BFD3F80490B9F1000F48F865
:1025A000254003D103F108037345EFD36D1E48BFE7
:1025B000022504F10104BC42E3DB937A002B0FD027
:1025C0000DF1100E9EE808407345D4BF059B049B97
:1025D000DDF818E09E45A8BF069B0693059304937B
:1025E000D37A1AF4002518BF0325002B0CBF012451
:1025F0000324A4F1010EA7EB0406434653F82E90E2
:10260000A6EB0407B945B4BFCF572F46BEF1010E64
:102610008F5506F10106F1D58346508B0F464FF0DA
:10262000020500F001024FF0010020EADA41002922
:1026300002A880E8060014BF4021072101919CF800
:1026400000600CBFDFF89440DFF894401AF0200FD0
:1026500008BF241D0CF101094FF0000804A951F82E
:10266000251017F9010B414523DA0199884220D240
:102670000299002902BF04EBC000028843883FF49E
:1026800046AF039A00F101014FEA610101FA02F13C
:1026900001F0030304EB43031B8822884FEAA101E6
:1026A00010F0010F23FA01F31EBF10461A4603462D
:1026B0002DE71AF0200F1EBF71005846FFF7F8FEF5
:1026C0000BEBC60B19F8016B6D1E48BF0225002EDF
:1026D00008F10108C2D107B0BDE8F08F10E800088A
:1026E00004E800084FEAB1110FB501F1805201F181
:1026F00011014FEAB1614FEAB2624DF8642D4DF815
:10270000041D00F5906454F84819D4F8802450F85A
:10271000483B54F848595CF804EB1344A3EB4202DD
:102720000D44A5EB410131FB0E222B44A3EB450BDD
:1027300032FB1E11029331FB0E2219910A92D0F83E
:102740008014D4F8802450F8483B54F848595CF879
:1027500004EB1344A3EB42020D44A5EB410131FB12
:102760000E222B44A3EB450A32FB1E11039331FBCF
:102770000E2218910B92D0F88014D4F8802450F8CF
:10278000483B54F848595CF804EB1344A3EB42026D
:102790000D44A5EB410131FB0E222B44A3EB45096F
:1027A00032FB1E11049331FB0E2217910C92D0F8CC
:1027B0008014D4F8802450F8483B54F848595CF809
:1027C00004EB1344A3EB42020D44A5EB410131FBA2
:1027D0000E222B44A3EB450832FB1E11059331FB5F
:1027E0000E2216910D92D0F88014D4F8802450F85F
:1027F000483B54F848595CF804EB1344A3EB4202FD
:102800000D44A5EB410131FB0E222B44A3EB450700
:1028100032FB1E11069331FB0E2215910E92D0F859
:102820008014D4F8802450F8483B54F848595CF898
:1028300004EB1344A3EB42020D44A5EB410131FB31
:102840000E222B44A3EB450632FB1E110793A1EB8E
:10285000020131FB0E2214910F92D0F88014D4F8AB
:10286000802450F8483B54F848595CF804EB134472
:10287000A3EB42020D44A5EB410131FB0E222B4498
:10288000A3EB450532FB1E110893A1EB020131FBBE
:102890000E2213911092D0F88014D4F8802403688B
:1028A000A0F2F81024685CF804EB1344A3EB420296
:1028B0000C44A4EB410131FB0E222344A3EB44045E
:1028C00032FB1E110993A1EB020131FB0E22129182
:1028D0001192BCE80E4034FB01BB35FB02AA3BFB66
:1028E00011443AFB125534FB01BB35FB02AA36FBFF
:1028F000039937FB0E8839FB136638FB1E7736FBCE
:102900000399A7EB080737FB0E88CA44AAEB4909CD
:10291000C344ABEB4808A7EB040707EB4404A5EB63
:102920000606A6EB45059CE80950D344ABEB4A0AE2
:102930003AFB0EAA3744A7EB460636FB0E6639FB78
:102940000C8835FB0C4438FB1C9934FB1C5539FBB7
:102950000C8835FB0C44B244AAEB4606A8EB0508EC
:1029600008EB4505A4EB0909A9EB440406BCC1F832
:102970008060C1F88041C1F88092C1F88073C2F8CC
:1029800080A0C2F88081C2F88052C2F880B3BDE84E
:10299000F00F4744A7EB48084E44A6EB49095544BD
:1029A000A5EB4A0A5C44A4EB4B0B38FB00BB354457
:1029B00039FB03AAA5EB46063BFB10883C443AFBD7
:1029C0001399A4EB470738FB00BB2C44A9EB0A0979
:1029D00039FB03AAA4EB450536FB0C77D344ABEBDC
:1029E0004A0A37FB1C66A9EB080909EB48083AFBC1
:1029F0000EAA38FB0E8836FB0C7735FB0E55C24409
:102A0000AAEB4808C6F10006C2F80081C2F80072BD
:102A1000C2F800B3C2F800440D601560C1F800A10F
:102A2000C1F80062C1F80093BDE8F00F4744A7EB7E
:102A300048084E44A6EB49095544A5EB4A0A5C44B4
:102A4000A4EB4B0B38FB00BB354439FB03AAA5EBC9
:102A500046063BFB10883C443AFB1399A4EB47071E
:102A600038FB00BB2C44A9EB0A0939FB03AAA4EBF1
:102A7000450536FB0C77D344ABEB4A0A37FB1C66A3
:102A8000A9EB080909EB48083AFB0EAA38FB0E88A7
:102A900036FB0C7735FB0E55C244AAEB4808C2F84A
:102AA000C0432DE9E00F0DF11C0B9BE8F00FA8EBE4
:102AB0000707A7EB4808A6EB090606EB4909AAEBAE
:102AC0000505A5EB4A0AA4EB0B0404EB4B0B38FB02
:102AD00000BB354439FB03AAA5EB46063BFB108837
:102AE0003C443AFB1399A4EB470738FB00BB2C444A
:102AF000A9EB0A0939FB03AAA4EB450536FB0C77C1
:102B0000D344ABEB4A0A37FB1C66A9EB080909EB77
:102B100048083AFB0EAA38FB0E8836FB0C7735FBCB
:102B20000E55C244AAEB4808C1F8C043BDE818508E
:102B30001D44C5EB430315640B64A7EB0404A4EB2D
:102B40004707C1F8C041C1F84072B444ACEB460637
:102B5000C2F84062C2F8C0C1BDE81810D644AEEB5E
:102B60004A0AC2F8C0E0C2F840A15B44A3EB4B0B99
:102B7000C1F84033C1F8C0B24444A4EB4808C1F8DE
:102B80004041C1F8C080CC44ACEB4909C2F8C0C296
:102B9000C2F8409308B003984FEAB11101F07042B7
:102BA000DFF890C84FEA8111ACEBD26C02F1E04340
:102BB00001EB93673F6803F1805801EB986898E850
:102BC00020012F44A7EB0807BCE81040B1E8000F34
:102BD00038FB047739FB14773AFB0E773BFB1E7703
:102BE000BCE81040B1E8000F38FB047739FB1477DC
:102BF0003AFB0E773BFB1E77BCE81040B1E8000FB4
:102C000038FB047739FB14773AFB0E773BFB1E77D2
:102C1000BCE81040B1E8000F38FB047739FB1477AB
:102C20003AFB0E773BFB1E770CF1200C01F571741B
:102C300054F808AB54F808BBBCE820403AFB15F642
:102C40003BFB1E6654F808AB54F808BBBCE82040B8
:102C50003AFB15663BFB1E6654F808AB54F808BBFC
:102C6000BCE820403AFB15663BFB1E6654F808ABF7
:102C700054F83CB9BCE820403AFB15663BFB1E66A5
:102C800004EB936ADAF800A001EB92644FF4007150
:102C9000AAEB060606F5007607F5007726F38F26E1
:102CA00027F38F2720F8487B00F5906323F8486CC2
:102CB00000F50763DFF880C7A4F108040FF20C08E1
:102CC00008EBD268D8F80080C7460000ED2C000859
:102CD000CF2D0008A92E0008832F00085D300008C2
:102CE0003731000811320008EB32000804F1080403
:102CF000F4E80289BCE82400D4E90CAB38FB0216E6
:102D00003BFB12FE38FB12173BFB027739FB05EE4B
:102D10003AFB156639FB15773AFB0577B4E80003F3
:102D2000BCE82400D4E908AB38FB02663BFB12EE9A
:102D300038FB12773BFB027739FB05EE3AFB156651
:102D400039FB15773AFB0577B4E80003BCE82400AB
:102D5000D4E904AB38FB02663BFB12EE38FB12777A
:102D60003BFB027739FB05EE3AFB156639FB15771D
:102D70003AFB057794E8000FBCE8240004F128042E
:102D800038FB12773BFB12EE3BFB027738FB026607
:102D90000EEB6B0E07EB680739FB05EE3AFB156689
:102DA00039FB15773AFB0577AEEB090E5644A7EBD6
:102DB0000A07A6EB0E064F4426F38F2627F38F272C
:102DC00020F8486B23F84879984291D1FCE2B4E8A6
:102DD000000FBCE824003AFB021639FB12FE3AFB56
:102DE000121739FB02773BFB05EE38FB15663BFB00
:102DF000157738FB0577B4E80003BCE82400D4E974
:102E000008AB38FB02663BFB12EE38FB12773BFB4C
:102E1000027739FB05EE3AFB156639FB15773AFB6D
:102E20000577B4E80003BCE82400D4E904AB38FB20
:102E300002663BFB12EE38FB12773BFB027739FB55
:102E400005EE3AFB156639FB15773AFB057794E8F2
:102E5000000FBCE8240004F1200438FB12773BFB90
:102E600012EE3BFB027738FB02660EEB6B0E07EBB4
:102E7000680739FB05EE3AFB156639FB15773AFB17
:102E80000577AEEB090E5644A7EB0A07A6EB0E0634
:102E90004F4426F38F2627F38F2720F8486B23F81B
:102EA0004879984293D18FE2B4E8000FBCE824003F
:102EB0003AFB021639FB12FE3AFB121739FB027776
:102EC0003BFB05EE38FB15663BFB157738FB0577BA
:102ED000B4E80003BCE8240054E908AB38FB026600
:102EE0003BFB12EE38FB12773BFB027739FB05EE1A
:102EF0003AFB156639FB15773AFB0577B4E8000312
:102F0000BCE82400D4E904AB38FB02663BFB12EEBC
:102F100038FB12773BFB027739FB05EE3AFB15666F
:102F200039FB15773AFB057794E8000FBCE82400DD
:102F300004F1200438FB12773BFB12EE3BFB0277D7
:102F400038FB02660EEB6B0E07EB680739FB05EEEC
:102F50003AFB156639FB15773AFB0577AEEB090EA0
:102F60005644A7EB0A07A6EB0E064F4426F38F261E
:102F700027F38F2720F8486B23F84879984293D19C
:102F800022E2B4E8000FBCE824003AFB021639FB49
:102F900012FE3AFB121739FB02773BFB05EE38FBBA
:102FA00015663BFB157738FB0577B4E80003BCE8F2
:102FB000240054E908AB38FB02663BFB12EE38FBF9
:102FC00012773BFB027739FB05EE3AFB156639FBBE
:102FD00015773AFB0577B4E80003BCE8240054E910
:102FE0000CAB38FB02663BFB12EE38FB12773BFB67
:102FF000027739FB05EE3AFB156639FB15773AFB8C
:10300000057794E8000FBCE8240004F1200438FBA5
:1030100012773BFB12EE3BFB027738FB02660EEBAE
:103020006B0E07EB680739FB05EE3AFB156639FBBB
:1030300015773AFB0577AEEB090E5644A7EB0A0766
:10304000A6EB0E064F4426F38F2627F38F2720F892
:10305000486B23F84879984293D1B5E1B4E8000F62
:10306000BCE824003AFB021639FB12FE3AFB1217A9
:1030700039FB02773BFB05EE38FB15663BFB15770A
:1030800038FB0577B4E80003BCE8240054E908AB3A
:1030900038FB02663BFB12EE38FB12773BFB0277F4
:1030A00039FB05EE3AFB156639FB15773AFB0577D8
:1030B000B4E80003BCE8240054E90CAB38FB02661A
:1030C0003BFB12EE38FB12773BFB027739FB05EE38
:1030D0003AFB156639FB15773AFB057774E80E89DC
:1030E000BCE82400F4E816AB38FB12773BFB12EE89
:1030F0003BFB027738FB02660EEB6B0E07EB6807B3
:1031000039FB05EE3AFB156639FB15773AFB057777
:10311000AEEB090E5644A7EB0A07A6EB0E064F448A
:1031200026F38F2627F38F2720F8486B23F848795A
:10313000984293D148E1B4E8000FBCE824003AFB80
:10314000021639FB12FE3AFB121739FB02773BFBE2
:1031500005EE38FB15663BFB157738FB0577B4E8C1
:103160000003BCE8240054E908AB38FB02663BFBD3
:1031700012EE38FB12773BFB027739FB05EE3AFB88
:10318000156639FB15773AFB057774E80A89BCE8C0
:10319000240074E804AB38FB02663BFB12EE38FBFC
:1031A00012773BFB027739FB05EE3AFB156639FBDC
:1031B00015773AFB057794E8000FBCE8240004F18A
:1031C000600438FB12773BFB12EE3BFB027738FBC7
:1031D00002660EEB6B0E07EB680739FB05EE3AFB58
:1031E000156639FB15773AFB0577AEEB090E5644A9
:1031F000A7EB0A07A6EB0E064F4426F38F2627F30C
:103200008F2720F8486B23F84879984293D1DBE068
:10321000B4E8000FBCE824003AFB021639FB12FEAA
:103220003AFB121739FB02773BFB05EE38FB1566BC
:103230003BFB157738FB057774E80689BCE824006A
:1032400074E808AB38FB02663BFB12EE38FB1277E2
:103250003BFB027739FB05EE3AFB156639FB157728
:103260003AFB0577B4E80003BCE82400D4E904ABDA
:1032700038FB02663BFB12EE38FB12773BFB027712
:1032800039FB05EE3AFB156639FB15773AFB0577F6
:1032900094E8000FBCE8240004F1600438FB1277C6
:1032A0003BFB12EE3BFB027738FB02660EEB6B0E2C
:1032B00007EB680739FB05EE3AFB156639FB157716
:1032C0003AFB0577AEEB090E5644A7EB0A07A6EBCF
:1032D0000E064F4426F38F2627F38F2720F8486BDE
:1032E00023F84879984293D16EE0B4E8000374E87B
:1032F0000EABBCE824003AFB021639FB12FE3AFB87
:10330000121739FB02773BFB05EE38FB15663BFBDA
:10331000157738FB0577B4E80003BCE82400D4E94E
:1033200008AB38FB02663BFB12EE38FB12773BFB27
:10333000027739FB05EE3AFB156639FB15773AFB48
:103340000577B4E80003BCE82400D4E904AB38FBFB
:1033500002663BFB12EE38FB12773BFB027739FB30
:1033600005EE3AFB156639FB15773AFB0577F4E86D
:103370000289BCE82400F4E816AB38FB12773BFB6B
:1033800012EE3BFB027738FB02660EEB6B0E07EB8F
:10339000680739FB05EE3AFB156639FB15773AFBF2
:1033A0000577AEEB090E5644A7EB0A07A6EB0E060F
:1033B0004F4426F38F2627F38F2720F8486B23F8F6
:1033C0004879984291D1FFE70FBC00F1040003F166
:1033D000040312F0010F06D0521EA1F100510BDDC3
:1033E0000FB4FFF782B9A2F101020FB4A1F180522C
:1033F00002F11102FFF77DB94FEAB1645DF804FBF9
:103400002DE9FF4F09680346DFF830C0FFF76AF97E
:103410000FBC0D680C60002B08BFBDE8F08F05F5F0
:10342000086100F1020300F51060FFF75BF9BDE8E9
:10343000F08F000068E80008C8E80008A8EA000863
:10344000034613F8012B002AFBD1181A01387047E4
:1034500001F0FF01102A2BDB10F0070F08D010F845
:10346000013B013A8B422DD010F0070F42B3F6D149
:10347000F0B441EA012141EA014122F007047FF062
:1034800000070023F0E80256083C85EA010586EAB9
:10349000010685FA47F5A3FA87F586FA47F6A5FAF5
:1034A00087F68EB9EED1F0BC01F0FF0102F0070201
:1034B00032B110F8013B013A83EA010313B1F8D1AC
:1034C0000020704701387047002D06BF354603388D
:1034D000073815F0010F07D1013015F4807F02BFC6
:1034E000013015F4C03F0130F0BC0138704700BF17
:1034F00053B94AB9002908BF00281CBF4FF0FF315B
:103500004FF0FF3000F072B9ADF1080C6DE904CE58
:1035100000F006F8DDF804E0DDE9022304B07047AE
:103520002DE9F047089E04468846002B4BD18A427D
:10353000154667D9B2FA82F24AB1C2F1200701FA00
:1035400002F320FA07F7954047EA030894404FEA50
:10355000154E230CB8FBFEF71FFA85FC0EFB1788EF
:1035600043EA084307FB0CF1994209D9EB1807F12C
:10357000FF3080F01B81994240F21881023F2B44BA
:103580005B1AA4B2B3FBFEF00EFB103344EA034413
:1035900000FB0CFCA44509D92C1900F1FF3380F085
:1035A0000781A44540F2048102382C4440EA0740D8
:1035B000A4EB0C0400271EB1D4400023C6E900434D
:1035C0003946BDE8F0878B4209D9002E00F0EB8028
:1035D0000027C6E9000138463946BDE8F087B3FA4E
:1035E00083F7002F47D18B4202D3824200F2FA8048
:1035F000841A61EB030301209846002EE0D0C6E94F
:103600000048DDE702B9FFDEB2FA82F2002A40F09C
:103610008F80491B4FEA154E1FFA85F80127B1FB31
:10362000FEFC230C0EFB1C1143EA014308FB0CF1CA
:10363000994207D9EB180CF1FF3002D2994200F2FF
:10364000CD808446591AA3B2B1FBFEF00EFB1014D4
:1036500043EA044408FB00F8A04507D92C1900F1FF
:10366000FF3302D2A04500F2B6801846A4EB08044E
:1036700040EA0C409FE7C7F1200CBB4022FA0CFE49
:103680004EEA030E01FA07F420FA0CF521FA0CF3C6
:103690004FEA1E482543B3FBF8F92C0C08FB1933FD
:1036A0001FFA8EFA44EA034309FB0AF49C4202FA29
:1036B00007F200FA07F10BD91EEB030309F1FF3003
:1036C00080F087809C4240F28480A9F10209734413
:1036D0001B1BADB2B3FBF8F008FB103345EA034403
:1036E00000FB0AFAA24508D91EEB040400F1FF33DF
:1036F0006BD2A24569D90238744440EA0940A0FB64
:103700000289A4EB0A044C45C2464B4654D351D01F
:10371000002E69D0B1EB0A0564EB030404FA0CFC3B
:10372000FD40FC404CEA0505C6E90054002747E788
:10373000C2F1200320FA03F7954001FA02F021FAC2
:1037400003F34FEA154E3843010CB3FBFEF71FFAA3
:1037500085F80EFB173341EA034107FB08F38B4260
:1037600004FA02F407D9691807F1FF3C2FD28B4203
:103770002DD9023F2944CB1A81B2B3FBFEF00EFBD8
:10378000103341EA034100FB08F38B4207D9691863
:1037900000F1FF3C17D28B4215D902382944C91ACF
:1037A00040EA07473BE73746304609E70746E7E682
:1037B0001846FBE64145ABD2B8EB020A69EB0E02B4
:1037C00001381346A4E76046E9E7184695E76746DF
:1037D000D1E781467CE702382C4447E7ACF1020C84
:1037E0002B442FE7384608E73746E9E6704700BF25
:1037F0000020704700207047642998BFC1EB012169
:1038000038B58FBFFF22642391FBF3F1CAB219329E
:10381000C5B2D4B222462846202100F0C1F928467C
:103820002246212100F0BCF9002038BDF8B506463B
:10383000F4B20D46174600F07FF90122022120461E
:1038400000F0AEF96A1E2A4B032A4ED8DFE802F0D8
:1038500002494B4DFA221A701A780421204600F0D2
:103860009FF981220521204600F09AF904220621C1
:10387000204600F095F930463946FFF7BDFF022D8E
:1038800006460ED006220F21204600F089F90022BC
:103890002421204600F084F900222521204600F052
:1038A0007FF9204600220A2100F07AF920460422FE
:1038B0000E2100F075F920460022272100F070F952
:1038C00020460F221F2100F06BF920460A221A2100
:1038D00000F066F920460A221B2100F061F930460B
:1038E000F8BDAF22B7E7AA22B5E70522B3E700BFCC
:1038F0000801002000F052B910B5044600F01CF990
:103900000121E0B200F068F900F0F80010BD10B538
:10391000C4B22046FF22042100F042F920460122D1
:10392000222100F03DF9204601222321BDE810406C
:1039300000F036B9012910B503D1FFF7E8FF0020E8
:1039400010BDC4B220460022222100F029F92046F1
:103950000022232100F024F9034B04211A78204689
:1039600000F01EF9EBE700BF0801002073B5002549
:10397000294604460195FFF7DDFF01950646019BA8
:10398000FE2B0ED9094BE4B21A782046042100F030
:1039900007F920469E22022100F002F9304602B0CB
:1039A00070BD019B01330193E9E700BF08010020CE
:1039B00010B50446FFF7ABFFE0B20122022100F090
:1039C000EFF8002010BD000010B50446E4B2FFF788
:1039D0009EFF204604220E2100F0E2F820469F229E
:1039E000022100F0DDF8024B01221A70002010BD08
:1039F0000000002070B50D4D2B78012B044613D12B
:103A0000C6B206220E21304600F0CAF80021204638
:103A1000FFF790FF9E2204460221304600F0C0F8D6
:103A200000232B70204670BD0024FBE7000000201F
:103A3000013910B5C0B2104C032917D8DFE801F0E6
:103A4000020A1016FA22042100F0AAF8FA232370C1
:103A5000002010BDAF22042100F0A2F8AF23F6E74A
:103A6000AA22042100F09CF8AA23F0E705220421F1
:103A700000F096F80523EAE70801002070B5294E0A
:103A800088B0304602F084F80546002847D1264B1E
:103A9000264C0190C6E9013033224FF48043C6E939
:103AA0000323234B3360236B43F002032363236B15
:103AB00003F002030193019B4FF410711223CDE92F
:103AC00003130223CDE9050303A90423194807932F
:103AD00000F032FE0295236C43F400132364236C40
:103AE00003F400130293029B236A43F4001323623E
:103AF000236A23F4001323622A4629461F2000F07C
:103B000097FA1F2000F0D8FA2A462946202000F014
:103B10008FFA202000F0D0FA304601F07BFD08B08B
:103B200070BD00BF0C010020A086010000380240DB
:103B30000054004000040240F0B587B00026154B49
:103B400000961A6B144C42F008021A631B6B03F0C8
:103B500008030093102501A92046009B012702239A
:103B6000CDE90363CDE9015700F0E6FDFFF786FFDD
:103B700032462946204600F025FF052000F026FAAF
:103B80003A462946204600F01DFF052000F01EFAA7
:103B900007B0F0BD00380240000C02407047000042
:103BA00010B586B006AC0A4B04F8012D1B680293D1
:103BB00001230A46CDE900430146064801F02EFEE6
:103BC00020B1044801F0FAFDFFF758FF06B010BD20
:103BD000340000200C0100207FB506AA002302F863
:103BE000013D0B4B1B6802930123CDE900230A46DC
:103BF0000146084801F0B4FE20B1064801F0DEFDA0
:103C0000FFF73CFF9DF8170007B05DF804FB00BF0D
:103C1000340000200C0100200D4AD16921F480619C
:103C200008B509040B4B090C1A60D16100224FF44E
:103C3000007158611846C3E90622DA601961C3E9C8
:103C4000011202F06BF8003018BF012008BD00BF60
:103C5000003C0040F402002038B50C4B1B680546C0
:103C60000C468AB2DB6801469420984760B9B4F5E7
:103C7000003F34BFC4F34F024FF6FF722946044899
:103C800001F08AFF002038BD0120FCE7C0010020C0
:103C9000F40200200A460146014801F07DBF00BF42
:103CA000F402002038B505460C4801F0C7FF0C4B64
:103CB0001B6829469B6994209847044658B9012DF2
:103CC00007D1284600F082F922461021054800F06D
:103CD00079FE204600E0012038BD00BFF40200203C
:103CE000C0010020000C024030B5144D85B0002307
:103CF000FF2455F82300DAB20133884208BF144686
:103D0000082BF6D1684602F0F5FE012314F0070FE8
:103D1000009301BF0A4B53F824300193094B16BF9F
:103D20004FF4817353F824300193684618BF03237E
:103D3000029302F0F1FD05B030BD00BF90C700084E
:103D4000B0C70008D0C7000870B58AB03E4C002547
:103D50000095236C43F400432364236C03F4004375
:103D60000093009B0195236B43F004032363236BB3
:103D700003F004030193019B0295236B43F00103BD
:103D80002363236B03F0010302930646029B4FF467
:103D9000A0500223CDE90503CDE9075305A9062369
:103DA0002A48099300F0C8FC102305A92848059368
:103DB00000F0C2FC0395236B244843F00403236303
:103DC000236B03F004030393039B05A9802305934E
:103DD00000F0B2FC0495236B326843F400132363B4
:103DE000236B03F400130493049B1A4B9A4221D1D2
:103DF000194CB4634023C4E902354FF480624FF498
:103E00000063C4E904234FF40053C4E906354FF4BA
:103E100000310423C4E908130323C4E90A3520460A
:103E20000E4B656025632360A66300F0CDFA204643
:103E300000F0A2F900220E212F2000F0F9F82F2027
:103E400000F03AF90AB070BD0038024000080240A4
:103E500000000240003C004060010020B8600240C9
:103E60002DE9F041164C15460746002220468846AB
:103E70002946FFF739FF134B2360204602F0D8F89C
:103E8000014610B92046FFF75FFF2846FFF7C4FE42
:103E9000044618B101242046BDE8F0810A4E942062
:103EA000B368984700F0F800E028F3D1074B42468A
:103EB0001E60394636682B469420B047EBE700BFBA
:103EC000F4020020003C004004000020C00100205B
:103ED00008B50268024B9A4201D107F043F908BDC8
:103EE000003C004008B50268024B9A4201D107F03D
:103EF00047F908BD003C0040704708B5FFF7FCFFDC
:103F000008BD70470268074B9A4210B5044601D1BC
:103F100007F03CF92268044B9A4201D1FFF7F1FF08
:103F200010BD00BF003C00400038004038B50E4ACC
:103F30000E4B054618784FF47A73B3FBF0F3106814
:103F4000B0FBF3F000F0CEF8044658B90F2D09D8B5
:103F5000024629464FF0FF3000F06AF8044B204635
:103F60001D6038BD0120FCE78400002038000020DF
:103F70003C00002008B50B4B1A6842F400721A602E
:103F80001A6842F480621A601A6842F480721A60F9
:103F9000032000F02FF80020FFF7C8FF07F0FCF81F
:103FA000002008BD003C0240034A044B11681B7806
:103FB0000B441360704700BF8403002038000020CA
:103FC000014B1868704700BF8403002038B50446D1
:103FD000FFF7F6FF631C1CBF054B1B78054618BF97
:103FE000E418FFF7EDFF401BA042FAD338BD00BF35
:103FF00038000020C31E042B10B5044603D9A221AB
:10400000094807F014F8094AD36823F4E0631B0455
:104010001B0C43F0BF63240243F4003304F4E06458
:104020001C43D46010BD00BFF0C7000800ED00E0E5
:104030000F2A70B505460C46164603D9BA211B480F
:1040400006F0F5FF0F2C03D9BB21184806F0EFFF4F
:10405000174BDA68C2F30222C2F10703111D042BC9
:1040600028BF042306294FF0FF3101FA03F38CBF68
:10407000033A002224EA0303934001FA02F226EAFB
:104080000206002D43EA0603A8BF05F160454FEA8A
:104090000313BCBF05F00F05064ADBB2AABF05F546
:1040A0006145535585F8003370BD00BFF0C7000867
:1040B00000ED00E014ED00E010B5041E03DACE219F
:1040C000064806F0B4FF6209012304F01F0403FA56
:1040D00004F4034B43F8224010BD00BFF0C70008B2
:1040E00000E100E00138B0F1807F0AD2064B074AB8
:1040F0005860F02182F823100020072298601A608F
:1041000070470120704700BF10E000E000ED00E0C4
:10411000042810B5084C0AD020B140F2D911074844
:1041200006F085FF236823F00403236010BD236895
:1041300043F00403F9E700BF10E000E0F0C7000817
:10414000704708B5FFF7FCFF08BD00000368DAB24E
:1041500023F47F7323F003031821103AB2FBF1F22A
:104160000449032A88BF0433895C8365C165806D77
:10417000704700BF63C8000870B50446FFF720FF12
:104180000546002C00F0178123688C4A934231D0F9
:10419000183293422ED0183293422BD018329342C9
:1041A00028D01832934225D01832934222D01832A8
:1041B00093421FD0183293421CD002F5567293429C
:1041C00018D01832934215D01832934212D01832B8
:1041D00093420FD0183293420CD01832934209D038
:1041E0001832934206D01832934203D0C821744843
:1041F00006F01DFF636833F0C06306D0B3F1006FB3
:1042000003D0C9216E4806F012FFA36833F04002C4
:1042100005D0802B03D0CA21694806F008FFE36867
:1042200033F4007303D0CB21654806F000FF236907
:1042300033F4806303D0CC21614806F0F8FE636953
:1042400033F4006206D0B3F5805F03D0CD215C4823
:1042500006F0EDFEA36933F4005206D0B3F5804FAB
:1042600003D0CE21564806F0E2FEE36933F0200287
:1042700006D0B3F5807F03D0CF21514806F0D7FE9A
:10428000236A33F4403303D0D0214D4806F0CFFEEB
:10429000636A33F0040303D0D121494806F0C7FE16
:1042A000636AB3B1A36A032B03D9D621444806F04D
:1042B000BEFEE36A33F0C07303D0D721404806F056
:1042C000B6FE236B33F4C00303D0D8213C4806F07C
:1042D000AEFE002384F834302268022384F835309F
:1042E000136823F00103136021680B68D8073CD4DE
:1042F0000B68344DA0691D40D4E901231343E268E3
:1043000013432269134362691343E269034313436E
:10431000226A1343626A042A43EA050302BFD4E90E
:104320000B5635432B430B604B69042A23F00703DC
:1043300043EA02030BD1A26AE56A13433DB1F8B91F
:10434000012A2DD001D3022A01D1EA012BD44B61DD
:104350002046FFF7FBFEE26D3F2393408360002081
:104360000123606584F8353009E0FFF729FE401B22
:104370000528B9D920236365032084F8350070BD72
:10438000B0F5005F13D1032AE1D801A050F822F064
:10439000A74300084B430008A7430008A1430008B7
:1043A000B5F1C07FD3D1402363650120E5E7022A40
:1043B000F9D9032AC8E70120E1E700BF10600240F5
:1043C0002BC800083F8010F038B50546002856D0AD
:1043D00090F83500C0B2022850D02B68294A934289
:1043E00032D0183293422FD0183293422CD0183248
:1043F000934229D01832934226D01832934223D0C8
:104400001832934220D0183293421DD002F55672D2
:10441000934219D01832934216D01832934213D0D7
:104420001832934210D0183293420DD01832934272
:104430000AD01832934207D01832934204D04FF476
:10444000AC71114806F0F3FD2B681A6822F00102E6
:104450001A60002421221C6028465C609C60DC609D
:104460001C615A61FFF772FEEA6D3F23934083603F
:104470006C6585F8344085F83540204638BD01200C
:10448000FCE700BF106002402BC800082DE9F04196
:10449000174698465A1E4FF6FE739A4204460D463A
:1044A000866D04D94FF4EA71214806F0C0FD94F8F6
:1044B0003430012B39D0012384F8343094F835306E
:1044C000012B4FF002004FF000012BD184F8350092
:1044D00061652168A3680868E26D402B4FF03F03D7
:1044E00003FA02F320F480200860C1F804800BBFB7
:1044F0008F608D60CD60CF60B3600B6843F01603B2
:104500000B604B6943F080034B61236C1BB10B685C
:1045100043F008030B600B6843F001030B600020BD
:10452000BDE8F08184F83410FAE70220F8E700BF14
:104530002BC8000870B50446856DFFF741FD94F85F
:104540003530022B064606D080236365002384F8AD
:104550003430012070BD23681A6822F016021A60F8
:104560005A6922F080025A61226C0AB9A26C1AB10F
:104570001A6822F008021A601A6822F001021A6012
:104580002368186810F0010009D1E26D3F239340C1
:10459000AB60012384F8340084F83530DAE7FFF7A4
:1045A0000FFD801B0528EBD9202363650320002322
:1045B00084F8343084F83500CCE70000F7B50023E8
:1045C00001935C4B856D1F68C36D2E6808229A406D
:1045D000324204460CD001680868400708D50868D4
:1045E00020F004000860AA60626D42F0010262657A
:1045F00001229A40324208D021684969090641BF28
:10460000AA60626D42F00202626504229A40324260
:1046100008D021680968880741BFAA60626D42F02E
:104620000402626510229A40324210D02368196851
:1046300009070CD5AA601A68500337D51B681903FF
:1046400001D4236C00E0A36C0BB120469847E16DC8
:1046500020228A4032423AD023681868C60636D5EE
:10466000AA6094F83520052A1A6827D122F016028C
:104670001A605A6922F080025A61226C0AB9A26C4F
:104680001AB11A6822F008021A603F238B40AB600F
:10469000002384F83430012384F83530236D002B57
:1046A00045D0204603B0BDE8F04018471A68D2054F
:1046B0005EBF1A6822F008021A60C2E7500327D5CD
:1046C0001B68190331D4636C0BB120469847636DA6
:1046D0006BB3636DDA0719D50523226884F835308A
:1046E000136823F0010313604FF41653B7FBF3F77D
:1046F000019B0133BB42019302D81368DB07F7D457
:10470000002384F83430012384F83530E36CC6E7A5
:104710001A6812F4807208D1196821F0100119602A
:10472000012384F8342084F83530E36BCCE703B000
:10473000F0BD00BF840000209C4B98422DE9F74F4C
:1047400004460D4623D003F5806398421FD003F53D
:10475000806398421BD003F58063984217D003F51D
:104760008063984213D003F5806398420FD003F51D
:10477000806398420BD003F58063984207D003F51D
:104780008063984203D0C321894806F050FC2B680F
:104790009AB212B11B0C1B041BB1C421844806F051
:1047A00046FC6B68032B17D9A3F11102012A13D918
:1047B000804923F400128A420ED001F580118B4209
:1047C0000AD0A1F570218A4206D07B4A934203D0D9
:1047D000C521774806F02BFCAB68022B03D9C62114
:1047E000734806F024FCDFF8D881002601232A68EC
:1047F00003FA06F707EA02094F4540F0C4806A68E9
:1048000022F01002022A18D12A690D2A05D90F2A8E
:1048100003D0D721664806F00AFCF10804EB8101B9
:1048200006F0070290000B6A0F22824023EA020C76
:104830002A69824042EA0C020A626A6820684FEAEA
:10484000460B4FF0030A0AFA0BFA02F003016FEA73
:104850000A0A22F010020AEA000001FA0BF1013AFA
:104860000143012A216017D8EA68032A03D9EA2103
:104870004F4806F0DCFBA168EA686B680AEA0101B0
:1048800002FA0BF20A43A2606268C3F3001322EA41
:104890000702B34013436360E36868680AEA030AE7
:1048A000AB6803FA0BF343EA0A03E360C3006AD57B
:1048B000424A00230193516C41F480415164526C8F
:1048C00026F0030101F1804102F4804201F59C31A0
:1048D000019206F0030C019AD1F808E04FEA8C0C23
:1048E0000F2202FA0CF22EEA020E304A94421FD036
:1048F00003F1804303F501339C424BD003F5806301
:104900009C4249D003F580639C4247D003F5806305
:104910009C4245D003F580639C4243D003F58063FD
:104920009C4241D003F580639C4214BF08230723B7
:1049300003FA0CF343EA0E038B60D8F800206FEA09
:104940000901C70354BF0A4049EA0202C8F800201F
:10495000D8F80420830354BF0A4049EA0202C8F889
:104960000420D8F80820C70254BF0A4049EA0202CE
:10497000C8F80820D8F80C30820254BF0B4049EA2E
:104980000303C8F80C300136102E7FF42FAF03B0AC
:10499000BDE8F08F0123CBE70223C9E70323C7E774
:1049A0000423C5E70523C3E70623C1E7000002404F
:1049B0006BC80008000011100000221000380240EF
:1049C000003C014070B5054616460C4621B940F240
:1049D000AF11084806F02BFB012E06D94FF4D87111
:1049E000044806F024FBAC6170BD002EFBD124040A
:1049F000F9E700BF6BC800082DE9FF41044690F8B5
:104A000090029DF828609DF82C70BDF830C00128F8
:104A10008E4622D0012084F89002282000FB01401D
:104A200002F07F0ED50980F8383080F8391080F810
:104A30003F7080F83AE080F83B5080F83C60A0F886
:104A400040C0CDE9017C0096206802F07BFC002389
:104A500084F8903204B0BDE8F0810220FAE790F8C3
:104A60009032012B10B5044609D0012380F8903212
:104A7000006802F018FE002084F8900210BD0220A9
:104A8000FCE700002DE9F04107468AB0002840D03D
:104A90000368B3F1A04F06D01F4A934203D08A2186
:104AA0001E4806F0C4FA03233C4687F89132384684
:104AB00006F0C6FC54F8100B02F0EEFA0FCC6D466F
:104AC0000FC50FCC0FC594E8030085E8030007F17C
:104AD00004083E4698E80E00386802F09DFA56F841
:104AE000100B012102F0DEFA0FCE6D460FC50FCE7E
:104AF0000FC594E8030085E8030098E80E003868C5
:104B000002F04CFB012387F8913200200AB0BDE887
:104B1000F0810120FAE700BF00000440A4C80008AB
:104B2000F0B5282606FB01069DF814C0069DBDF8C9
:104B30001C409DF8207086F83B2086F83F30BCF181
:104B4000000F0ED14FF0030C022B86F842C04AD062
:104B5000634555D0012B2FD1282303FB01030022ED
:104B600055E04FF0020E86F842E0032B24D801A650
:104B700056F823F0854B0008594B0008E74B000816
:104B8000014C0008BCF1010F16D1AAB924B92823A1
:104B900003FB010383F851C0282303FB010292F8B1
:104BA0005160F6B982F8426003FB010393F85C2080
:104BB000022A01D083F83D70282606FB010300225B
:104BC00083F839101946C3E9115483F85C20DA647C
:104BD00083F85D203831027C0068BDE8F04002F0C7
:104BE00019BC0226DEE7282303FB010392B993F8E0
:104BF00051601EB983F842202823D5E70222F9E745
:104C0000282303FB01032AB993F8516036B983F8CE
:104C10004220D1E793F85020002AF8D00222F6E78C
:104C20002DE9F04F066887B00546304602F09AFA43
:104C3000012840F0EA80286802F090FA002800F08D
:104C4000E480286802F08AFA800248BF2B6828684E
:104C500044BF4FF400125A6102F080FAC10248BF0B
:104C60002B68286844BF4FF480125A6102F076FA2C
:104C7000420148BF2B68286844BF4FF080625A61E8
:104C800002F06CFA830748BF2B68286844BF0222F1
:104C90005A6102F063FA870010D5D6F8403423F049
:104CA0002E03C6F84034284606F00EFC0121286881
:104CB00002F0E6FA2B684FF000525A61286802F0C1
:104CC0004DFAC40140D52C68D4F840340493D4F88C
:104CD00040340593059B23F02E030593049B98070E
:104CE0000DD5049BD90706D5A36923F00053A36112
:104CF000284606F0E5FB059B43F002030593049B61
:104D00001A0717D5059B43F008030593049B5B071F
:104D100040F18680A96902297AD1049B286803F4AE
:104D2000C023B3F5802F18BF012102F0A9FA28464D
:104D300006F0C6FB049B9F0642BF059B43F0200381
:104D40000593059BC4F84034286802F007FA04076D
:104D500005D5284606F0B0FB2B6808225A61286862
:104D600002F0FCF9800112D5286802F08DFC06F5EE
:104D7000A06301904FF000084FF00109029328272B
:104D8000AB682868434557D84FF0007343612868E3
:104D900002F0E4F9C30638D52C68A36923F01003A8
:104DA000A361276AC7F34343022B29D1C7F30A182B
:104DB000B8F1000F24D007F00F07282606FB07568E
:104DC000716CE9B14246204602F0BAF9736C434473
:104DD000736404F5A064F36C04EB47144344F36478
:104DE0002269B94B13405BB1236823F0804343F041
:104DF0000043236096F8503083F0010386F850306A
:104E00002A68936943F01003936107B0BDE8F08FFF
:104E1000EB68032B04BF4EF66022C4F8042486E737
:104E2000D4F840342A6823F02E03C4F84034936940
:104E300043F0005393617DE7019A09FA08F31342A6
:104E400000F083804FEA4813029AD1585FFA88F63F
:104E50004FEA461B00F5A06A09040BEB0A0440F177
:104E6000F980A1684A0713D50421A160E16841F0E7
:104E70000201E160A1688B0539D5E368286843F039
:104E80000203E360314602F00EFC4FF4007319E1B7
:104E9000A1688B0602D52021A160EBE7A168090774
:104EA00011D5E16841F00201E16007FB06514FF0C6
:104EB000050C81F85DC01021A1600821A160314678
:104EC00002F0F1FBD6E7A1684A05D3D5E16841F0CD
:104ED0000201E160314602F0E6FB1021A16007FB10
:104EE0000651082081F85D004FF48061D4E7A16885
:104EF000C8073DD5296949B107FB065C2069DCF884
:104F00004810C0F31200091ACCF84C1007FB0651E8
:104F10000020886581F85D90C4F8089091F83F0002
:104F200010F0FD0F14D1E368286843F00203E3603A
:104F3000314602F0B8FB1023A36007FB065696F833
:104F4000503083F0010386F8503008F1010817E76C
:104F50000328F2D15BF80A0040F000504BF80A0039
:104F6000012281F85C902846314606F0B1FAE4E768
:104F7000A168890734D5E16807FB065021F00201DA
:104F8000E16090F85D1001290CD180F85C100223DB
:104F9000A36007FB0653314693F85C20284606F0D1
:104FA00097FAD2E70529F0D0062901D00829EED1D9
:104FB00007FB0651886D032800F1010388BF00201C
:104FC0008B6592BF02208865042081F85C005BF845
:104FD0000A1021F0804141F000414BF80A10D6E759
:104FE000A16828680A0610D5E36807FB065243F05B
:104FF0000203E360936D01339365062382F85D300D
:10500000314602F050FB80235CE0A168CB069CD5C2
:1050100007FB065191F83F10032906D1E16841F0E2
:105020000201E160314602F03EFB07FB0656032118
:1050300086F85D101021A16096F83F1011F0FD0F69
:1050400083D15BF80A1021F0804141F000414BF818
:105050000A107AE7A368590706D50423A360E3681A
:1050600043F00203E36070E7A36813F0200318D055
:105070002023A36007FB065393F83D20012A7FF409
:1050800064AF042283F85D20E268039342F00202D9
:10509000E260314602F007FB039B022283F85C20AA
:1050A00053E7A268520611D507FB06520421936507
:1050B000E36882F85D1043F00203E360314602F0DA
:1050C000F2FA4023A36040E70000F81FA36813F43E
:1050D000007305D0E36843F00203E3603146D2E693
:1050E000A268D10710D507FB065231469365E368E5
:1050F000039243F00203E36002F0D5FA039AC4F886
:10510000089082F85D9020E7A3681A070ED508235F
:10511000A360E36843F00203E360314602F0C3FAA0
:1051200007FB0656052386F85D300EE7A368DB060D
:1051300011D507FB065300229A65E268039342F0FB
:105140000202E260314602F0AEFA039B032283F8CA
:105150005D201023B6E7A36819060CD5E36843F079
:105160000203E360314607FB065602F09CFA062371
:1051700086F85D3047E7A16811F480610FD0E368DD
:1051800043F00203E360314602F08DFA1023A3607E
:105190004FF48063A36007FB06560823C3E7A368A8
:1051A0009A077FF5D2AEE36823F00203E36007FBC2
:1051B000065393F85D20012A0DD183F85C2093F803
:1051C0003F20022A7FF4E3AE93F8512082F00102DF
:1051D00083F85120DBE6032A4FF0020002D183F866
:1051E0005C00D4E6042A04D183F85C0083F83D1007
:1051F000CDE6052A02D183F85C20C8E6062A02D053
:10520000082A7FF4C4AE07FB06539A6D032A02F105
:10521000010188BF0022996592BF02229A6504228B
:10522000E9E700BF38B590F89032012B04460DD065
:10523000012580F89052006801F028FF2946206877
:1052400002F054F8002084F8900238BD0220FCE7F8
:1052500090F89032012B10B5044609D0012380F854
:105260009032006802F03AFB002084F8900210BDF2
:105270000220FCE7006802F020B8282303FB0101AC
:1052800091F85C007047282303FB0101C86C70474C
:10529000006802F052B8006802F046B8026853692C
:1052A00013F480630DD06FF48063536104230364AF
:1052B00020220023036380F83C3080F83D20012049
:1052C0007047184670472DE9F04104461646984647
:1052D0008FB22568686937EA000013D06B695A05F8
:1052E00012D52B6843F400732B606FF480636B61FD
:1052F0000423236420220023236384F83C3084F8B1
:105300003D200120BDE8F081731CE3D046B90023A5
:105310002022236384F83C3084F83D200320F1E709
:10532000FEF74EFEA0EB0800B042D2D9EFE72DE920
:10533000F843089E054690461F464FEA11498CB235
:105340002968B9F1010F0CBF4B698B6934EA03037B
:105350000CBF01230023984501D000200CE07B1CEA
:10536000EFD05FB9002320222B6385F83C3085F80D
:105370003D20032085F83E30BDE8F883FEF720FE8F
:10538000801BB842DCD9EDE770B504460D461646E1
:1053900023685B691B0601D5002012E02046FFF759
:1053A0007DFFA8B96A1CF3D065B9236C43F02003D4
:1053B000236420220023236384F83C3084F83D20BA
:1053C000032070BDFEF7FCFD801BA842E0D9ECE78E
:1053D0000120F6E72DE9FF41154602680B9E98462D
:1053E000136843F4807313600F4600960A9B0022F3
:1053F0004FF001110446FFF79AFF68B923680A9A33
:105400001C4907F0FE071F6120463346FFF75BFF8C
:1054100030B1236C042B18D0032004B0BDE8F08118
:10542000236803905A6903929B69039332460A9951
:10543000039B2046FFF7A8FF48B1236C042BEBD158
:105440002268136843F4007313600120E5E7B8F1A4
:10545000010F236802D1EDB21D61DEE72A0A1A614D
:105460000A9932462046FFF78FFF0028E5D12368CE
:10547000F1E700BF020001002DE9FF4198460368F3
:105480000B9D16461A6842F480621A601A6842F44C
:1054900080721A600F4600950A9B00224FF001119E
:1054A0000446FFF744FF80B923682F49FFB207F095
:1054B000FE021A6120462B460A9AFFF704FF40B10C
:1054C000236C042B01D1012000E0032004B0BDE8CF
:1054D000F081236803905A6903929B6903932A46DB
:1054E0000A99039B2046FFF74FFF40B1236C042B22
:1054F000EBD12268136843F400731360E3E7B8F15B
:10550000010F236824D1F6B21E612A460A9920466B
:10551000FFF73AFF02460028E8D121680B6843F400
:1055200080730B60204600950A9B4FF00111FFF736
:10553000FEFE0028C9D123680A9A0B4947F00107EB
:105540001F6120462B46FFF7BEFE0028B8D1BDE7FD
:10555000320A1A610A992A462046FFF715FF0028E9
:10556000C4D12368CFE700BF0200010070B5044634
:105570000D4616462068436913F0400301D0002011
:105580000DE04269D2060BD56FF010024261202275
:10559000236484F83C302363012084F83D2070BDEF
:1055A0005DB9236C43F020032364202384F83D304D
:1055B000002384F83C300320F1E7FEF701FD801B57
:1055C000A842D7D9EDE770B504460D4616462368C4
:1055D0005B695B0701D5002012E02046FFF75EFE05
:1055E000A8B96A1CF3D065B9236C43F02003236487
:1055F00020220023236384F83C3084F83D200320DC
:1056000070BDFEF7DDFC801BA842E0D9ECE701206D
:10561000F6E7704770B50446002800F0C1800368C3
:10562000604A93420CD002F58062934208D002F5A2
:105630008062934204D04FF4B7715B4805F0F7FCE9
:1056400063685A4A013B934204D940F26F115648AD
:1056500005F0EDFCA36833F4804304D04FF4B87137
:10566000514805F0E4FCE36823F47F7323F003035F
:1056700023B140F271114C4805F0D9FC236923F4A1
:105680000043B3F5804F04D04FF4B971464805F09C
:10569000CEFC6369012B04D940F27311424805F036
:1056A000C6FCA36933F0FE0304D04FF4BA713E4840
:1056B00005F0BDFCE36933F0400304D040F27511FE
:1056C000394805F0B4FC236A33F0800304D04FF46A
:1056D000BB71354805F0ABFC94F83D3003F0FF0298
:1056E00023B984F83C202046FFF793FF2268304E10
:1056F000304D242384F83D30136823F001031360F8
:1057000001F0EAF863682268B0FBF5F5B34284BFA4
:105710004FF496716943556091BF691C4FF47A75D7
:10572000B1FBF5F10131B342116221D85B00B0FB4E
:10573000F3F0C0F30B03032B98BF0420D4E9073127
:105740000B43D0611360D4E903130B439360D4E996
:1057500005310B43D360136843F00103136000204D
:105760002023206484F83D30206384F83E0070BD1F
:10577000A16849B903EB4303B0FBF3F0C0F30B039B
:1057800063B140F40040D9E719214B43B0FBF3F07B
:10579000C0F30B0313B140F44040CFE70120CDE745
:1057A0000120E4E700540040DCC800087F1A06002E
:1057B000A086010040420F007047000010B504466B
:1057C00028B30368134A93420CD002F580629342D7
:1057D00008D002F58062934204D040F2BD110E4819
:1057E00005F025FC2268242384F83D30136823F05B
:1057F000010320461360FFF7DFFF0020206484F8D8
:105800003C0084F83D00206384F83E0010BD012078
:10581000FCE700BF00540040DCC800082DE9F34756
:105820000C9E9846044689469246FEF7C9FBB8F19D
:10583000010F054607D0B8F1100F04D040F66B11E8
:10584000444805F0F4FB94F83D30202B03D00220AF
:1058500002B0BDE8F0870095192301223E49204699
:10586000FFF765FD0028F2D194F83C30012BEED013
:10587000012384F83C3023681A68D2075EBF1A6897
:1058800042F001021A601A6822F400621A602123B1
:1058900084F83D30402384F83E300A9B6362002741
:1058A000BDF82C30276463852C4BE362638D238520
:1058B000CDE900654346524649462046FFF78AFD3A
:1058C00000282AD0236C84F83C70042B07D10120D7
:1058D000BEE7FFF759FD20B1236C042B34D0032021
:1058E000B6E7616A2768228D4B1C63620B783B61C7
:1058F000638D013B9BB263857B69501E80B25B0761
:1059000020850AD548B18B1C63624B783B61638D5F
:10591000013B023A9BB222856385238D2A4631469C
:105920002046002BD5D1FFF74EFE0028D4D12268A7
:10593000136843F400731360202384F83D3084F827
:105940003C0084F83E0083E72268136843F4007348
:105950001360BCE7DCC80008020010000000FFFF75
:105960002DE9F04786B01D46044689469246109FB1
:10597000FEF726FB012D064606D0102D04D04FF46D
:105980001F617F4805F053FB94F83D30202B04D075
:105990000225284606B0BDE8F087009619230122AB
:1059A00078492046FFF7C3FC0028F1D194F83C3039
:1059B000012BEDD0012384F83C3023681A68D1070D
:1059C0005EBF1A6842F001021A601A6822F400628F
:1059D0001A60222384F83D30402384F83E300E9B29
:1059E00063624FF00008BDF83C30C4F84080638526
:1059F000654BE362638D2385CDE900762B465246E5
:105A000049462046FFF738FD054630B1236C84F83F
:105A10003C80042B3AD10125BBE7228D236892B943
:105A200002905A6902929A690292029A1A6842F4A2
:105A300000721A60202384F83D30002384F83E3041
:105A400084F83C30A5E7012A22D11A6822F480624A
:105A50001A6003905A6903929A690392039A1A682A
:105A600042F400721A60DFF82481238D002BE1D00C
:105A7000032B6BD8012B23D1324639462046FFF742
:105A800075FD002839D0236C202BC4D1032580E775
:105A9000022A0ED11A6822F480621A601A6842F44F
:105AA00000621A6004905A6904929B690493049BF3
:105AB000D9E705905A6905929B690593059BD2E742
:105AC000022B00963B464FF000024146204622D171
:105AD000FFF72DFC0028D9D123681A6842F4007220
